{
  "address": "0x2b8E04D9118122381E34A6030D05F9e62a05ea3C",
  "abi": [
    {
      "inputs": [
        {
          "internalType": "uint256",
          "name": "entranceFee",
          "type": "uint256"
        },
        {
          "internalType": "uint256",
          "name": "interval",
          "type": "uint256"
        },
        {
          "internalType": "address",
          "name": "vrfCoordinatorV2",
          "type": "address"
        },
        {
          "internalType": "bytes32",
          "name": "gasLane",
          "type": "bytes32"
        },
        {
          "internalType": "uint64",
          "name": "subscriptionId",
          "type": "uint64"
        },
        {
          "internalType": "uint32",
          "name": "callbackGasLimit",
          "type": "uint32"
        }
      ],
      "stateMutability": "nonpayable",
      "type": "constructor"
    },
    {
      "inputs": [
        {
          "internalType": "address",
          "name": "have",
          "type": "address"
        },
        {
          "internalType": "address",
          "name": "want",
          "type": "address"
        }
      ],
      "name": "OnlyCoordinatorCanFulfill",
      "type": "error"
    },
    {
      "inputs": [],
      "name": "Raffle__RaffleNotOpen",
      "type": "error"
    },
    {
      "inputs": [],
      "name": "Raffle__SendMoreToEnterRaffle",
      "type": "error"
    },
    {
      "inputs": [],
      "name": "Raffle__TransferFailed",
      "type": "error"
    },
    {
      "inputs": [],
      "name": "Raffle__UpkeepNotNeeded",
      "type": "error"
    },
    {
      "anonymous": false,
      "inputs": [
        {
          "indexed": true,
          "internalType": "address",
          "name": "player",
          "type": "address"
        }
      ],
      "name": "RaffleEnter",
      "type": "event"
    },
    {
      "anonymous": false,
      "inputs": [
        {
          "indexed": true,
          "internalType": "uint256",
          "name": "requestId",
          "type": "uint256"
        }
      ],
      "name": "RequestedRaffleWinner",
      "type": "event"
    },
    {
      "anonymous": false,
      "inputs": [
        {
          "indexed": true,
          "internalType": "address",
          "name": "winner",
          "type": "address"
        }
      ],
      "name": "WinnerPicked",
      "type": "event"
    },
    {
      "inputs": [],
      "name": "NUM_WORDS",
      "outputs": [
        {
          "internalType": "uint32",
          "name": "",
          "type": "uint32"
        }
      ],
      "stateMutability": "view",
      "type": "function"
    },
    {
      "inputs": [],
      "name": "REQUEST_CONFIRMATIONS",
      "outputs": [
        {
          "internalType": "uint16",
          "name": "",
          "type": "uint16"
        }
      ],
      "stateMutability": "view",
      "type": "function"
    },
    {
      "inputs": [
        {
          "internalType": "bytes",
          "name": "",
          "type": "bytes"
        }
      ],
      "name": "checkUpkeep",
      "outputs": [
        {
          "internalType": "bool",
          "name": "upkeedNeeded",
          "type": "bool"
        },
        {
          "internalType": "bytes",
          "name": "",
          "type": "bytes"
        }
      ],
      "stateMutability": "view",
      "type": "function"
    },
    {
      "inputs": [],
      "name": "enterRaffle",
      "outputs": [],
      "stateMutability": "payable",
      "type": "function"
    },
    {
      "inputs": [],
      "name": "i_callbackGasLimit",
      "outputs": [
        {
          "internalType": "uint32",
          "name": "",
          "type": "uint32"
        }
      ],
      "stateMutability": "view",
      "type": "function"
    },
    {
      "inputs": [],
      "name": "i_entranceFee",
      "outputs": [
        {
          "internalType": "uint256",
          "name": "",
          "type": "uint256"
        }
      ],
      "stateMutability": "view",
      "type": "function"
    },
    {
      "inputs": [],
      "name": "i_gasLane",
      "outputs": [
        {
          "internalType": "bytes32",
          "name": "",
          "type": "bytes32"
        }
      ],
      "stateMutability": "view",
      "type": "function"
    },
    {
      "inputs": [],
      "name": "i_interval",
      "outputs": [
        {
          "internalType": "uint256",
          "name": "",
          "type": "uint256"
        }
      ],
      "stateMutability": "view",
      "type": "function"
    },
    {
      "inputs": [],
      "name": "i_subscriptionId",
      "outputs": [
        {
          "internalType": "uint64",
          "name": "",
          "type": "uint64"
        }
      ],
      "stateMutability": "view",
      "type": "function"
    },
    {
      "inputs": [],
      "name": "i_vrfCoordinator",
      "outputs": [
        {
          "internalType": "contract VRFCoordinatorV2Interface",
          "name": "",
          "type": "address"
        }
      ],
      "stateMutability": "view",
      "type": "function"
    },
    {
      "inputs": [
        {
          "internalType": "bytes",
          "name": "",
          "type": "bytes"
        }
      ],
      "name": "performUpkeep",
      "outputs": [],
      "stateMutability": "nonpayable",
      "type": "function"
    },
    {
      "inputs": [
        {
          "internalType": "uint256",
          "name": "requestId",
          "type": "uint256"
        },
        {
          "internalType": "uint256[]",
          "name": "randomWords",
          "type": "uint256[]"
        }
      ],
      "name": "rawFulfillRandomWords",
      "outputs": [],
      "stateMutability": "nonpayable",
      "type": "function"
    },
    {
      "inputs": [],
      "name": "s_lastTimeStamp",
      "outputs": [
        {
          "internalType": "uint256",
          "name": "",
          "type": "uint256"
        }
      ],
      "stateMutability": "view",
      "type": "function"
    },
    {
      "inputs": [
        {
          "internalType": "uint256",
          "name": "",
          "type": "uint256"
        }
      ],
      "name": "s_players",
      "outputs": [
        {
          "internalType": "address payable",
          "name": "",
          "type": "address"
        }
      ],
      "stateMutability": "view",
      "type": "function"
    },
    {
      "inputs": [],
      "name": "s_raffleState",
      "outputs": [
        {
          "internalType": "enum Raffle.RaffleState",
          "name": "",
          "type": "uint8"
        }
      ],
      "stateMutability": "view",
      "type": "function"
    },
    {
      "inputs": [],
      "name": "s_recentWinner",
      "outputs": [
        {
          "internalType": "address",
          "name": "",
          "type": "address"
        }
      ],
      "stateMutability": "view",
      "type": "function"
    }
  ],
  "transactionHash": "0x6428f35d3526c1869c0f345ccf96e6c74528aaa567467e0afd44e5c178d004c8",
  "args": [
    "100000000000000000",
    300,
    "0x6168499c0cFfCaCD319c818142124B7A15E857ab",
    "0xd89b2bf150e3b9e13446986e571fb9cab24b13cea0a43ea20a6049a85cc807cc",
    "3587",
    "50000"
  ],
  "numDeployments": 1,
  "solcInputHash": "cd1fbb75d0d307c201071acee5a3e0cb",
  "bytecode": "0x6101606040523480156200001257600080fd5b50604051620019a9380380620019a983398181016040528101906200003891906200017f565b838073ffffffffffffffffffffffffffffffffffffffff1660808173ffffffffffffffffffffffffffffffffffffffff1660601b81525050508560a081815250508460c08181525050426001819055508373ffffffffffffffffffffffffffffffffffffffff1660e08173ffffffffffffffffffffffffffffffffffffffff1660601b815250508261010081815250508167ffffffffffffffff166101208167ffffffffffffffff1660c01b815250508063ffffffff166101408163ffffffff1660e01b815250505050505050506200030e565b6000815190506200011d816200028c565b92915050565b6000815190506200013481620002a6565b92915050565b6000815190506200014b81620002c0565b92915050565b6000815190506200016281620002da565b92915050565b6000815190506200017981620002f4565b92915050565b60008060008060008060c087890312156200019f576200019e62000287565b5b6000620001af89828a016200013a565b9650506020620001c289828a016200013a565b9550506040620001d589828a016200010c565b9450506060620001e889828a0162000123565b9350506080620001fb89828a0162000168565b92505060a06200020e89828a0162000151565b9150509295509295509295565b6000620002288262000239565b9050919050565b6000819050919050565b600073ffffffffffffffffffffffffffffffffffffffff82169050919050565b6000819050919050565b600063ffffffff82169050919050565b600067ffffffffffffffff82169050919050565b600080fd5b62000297816200021b565b8114620002a357600080fd5b50565b620002b1816200022f565b8114620002bd57600080fd5b50565b620002cb8162000259565b8114620002d757600080fd5b50565b620002e58162000263565b8114620002f157600080fd5b50565b620002ff8162000273565b81146200030b57600080fd5b50565b60805160601c60a05160c05160e05160601c610100516101205160c01c6101405160e01c611603620003a6600039600081816106dd01526109c20152600081816106ba01526107a7015260008181610699015261092a01526000818161065d015261098d0152600081816107d0015261083401526000818161046a01526108e00152600081816103aa01526103fe01526116036000f3fe6080604052600436106100f35760003560e01c806372cf6e341161008a578063ae771f6b11610059578063ae771f6b146102ea578063aebc455014610327578063cc45483f14610352578063d757d0271461037d576100f3565b806372cf6e341461023e5780637ea3e6c1146102695780638638b0c6146102945780638e879c8a146102bf576100f3565b8063470cdf97116100c6578063470cdf971461017f57806367f082b0146101aa5780636919207d146101d55780636e04ff0d14610200576100f3565b80631fe543e3146100f85780632cfcc53914610121578063348540431461012b5780634585e33b14610156575b600080fd5b34801561010457600080fd5b5061011f600480360381019061011a9190610f11565b6103a8565b005b610129610468565b005b34801561013757600080fd5b506101406105d5565b60405161014d91906111c2565b60405180910390f35b34801561016257600080fd5b5061017d60048036038101906101789190610e21565b6105db565b005b34801561018b57600080fd5b506101946107a5565b6040516101a191906111f8565b60405180910390f35b3480156101b657600080fd5b506101bf6107c9565b6040516101cc91906111a7565b60405180910390f35b3480156101e157600080fd5b506101ea6107ce565b6040516101f791906111c2565b60405180910390f35b34801561020c57600080fd5b5061022760048036038101906102229190610e6e565b6107f2565b6040516102359291906110d3565b60405180910390f35b34801561024a57600080fd5b506102536108d9565b60405161026091906111dd565b60405180910390f35b34801561027557600080fd5b5061027e6108de565b60405161028b91906111c2565b60405180910390f35b3480156102a057600080fd5b506102a9610902565b6040516102b69190611074565b60405180910390f35b3480156102cb57600080fd5b506102d4610928565b6040516102e19190611103565b60405180910390f35b3480156102f657600080fd5b50610311600480360381019061030c9190610eb7565b61094c565b60405161031e919061108f565b60405180910390f35b34801561033357600080fd5b5061033c61098b565b6040516103499190611171565b60405180910390f35b34801561035e57600080fd5b506103676109af565b604051610374919061118c565b60405180910390f35b34801561038957600080fd5b506103926109c0565b60405161039f91906111dd565b60405180910390f35b7f000000000000000000000000000000000000000000000000000000000000000073ffffffffffffffffffffffffffffffffffffffff163373ffffffffffffffffffffffffffffffffffffffff161461045a57337f00000000000000000000000000000000000000000000000000000000000000006040517f1cf993f40000000000000000000000000000000000000000000000000000000081526004016104519291906110aa565b60405180910390fd5b61046482826109e4565b5050565b7f00000000000000000000000000000000000000000000000000000000000000003410156104c2576040517f3038c00a00000000000000000000000000000000000000000000000000000000815260040160405180910390fd5b600060018111156104d6576104d56114e3565b5b60008054906101000a900460ff1660018111156104f6576104f56114e3565b5b1461052d576040517fd24a271400000000000000000000000000000000000000000000000000000000815260040160405180910390fd5b6002339080600181540180825580915050600190039060005260206000200160009091909190916101000a81548173ffffffffffffffffffffffffffffffffffffffff021916908373ffffffffffffffffffffffffffffffffffffffff1602179055503373ffffffffffffffffffffffffffffffffffffffff167f0805e1d667bddb8a95f0f09880cf94f403fb596ce79928d9f29b74203ba284d460405160405180910390a2565b60015481565b60006105f5604051806020016040528060008152506107f2565b5090508061062f576040517f8e4bc81700000000000000000000000000000000000000000000000000000000815260040160405180910390fd5b60016000806101000a81548160ff02191690836001811115610654576106536114e3565b5b021790555060007f000000000000000000000000000000000000000000000000000000000000000073ffffffffffffffffffffffffffffffffffffffff16635d3b1d307f00000000000000000000000000000000000000000000000000000000000000007f000000000000000000000000000000000000000000000000000000000000000060037f000000000000000000000000000000000000000000000000000000000000000060016040518663ffffffff1660e01b815260040161071e95949392919061111e565b602060405180830381600087803b15801561073857600080fd5b505af115801561074c573d6000803e3d6000fd5b505050506040513d601f19601f820116820180604052508101906107709190610ee4565b9050807fcd6e45c8998311cab7e9d4385596cac867e20a0587194b954fa3a731c93ce78b60405160405180910390a250505050565b7f000000000000000000000000000000000000000000000000000000000000000081565b600381565b7f000000000000000000000000000000000000000000000000000000000000000081565b6000606060008060009054906101000a900460ff166001811115610819576108186114e3565b5b6000600181111561082d5761082c6114e3565b5b14905060007f00000000000000000000000000000000000000000000000000000000000000006001544261086191906112bc565b119050600080471190506000806002805490501190508280156108815750835b801561088a5750815b80156108935750805b9550856040518060400160405280600381526020017f30783000000000000000000000000000000000000000000000000000000000008152509550955050505050915091565b600181565b7f000000000000000000000000000000000000000000000000000000000000000081565b600360009054906101000a900473ffffffffffffffffffffffffffffffffffffffff1681565b7f000000000000000000000000000000000000000000000000000000000000000081565b6002818154811061095c57600080fd5b906000526020600020016000915054906101000a900473ffffffffffffffffffffffffffffffffffffffff1681565b7f000000000000000000000000000000000000000000000000000000000000000081565b60008054906101000a900460ff1681565b7f000000000000000000000000000000000000000000000000000000000000000081565b600060028054905082600081518110610a00576109ff611512565b5b6020026020010151610a129190611454565b9050600060028281548110610a2a57610a29611512565b5b9060005260206000200160009054906101000a900473ffffffffffffffffffffffffffffffffffffffff16905080600360006101000a81548173ffffffffffffffffffffffffffffffffffffffff021916908373ffffffffffffffffffffffffffffffffffffffff160217905550600067ffffffffffffffff811115610ab357610ab2611541565b5b604051908082528060200260200182016040528015610ae15781602001602082028036833780820191505090505b5060029080519060200190610af7929190610bec565b504260018190555060008173ffffffffffffffffffffffffffffffffffffffff1647604051610b259061105f565b60006040518083038185875af1925050503d8060008114610b62576040519150601f19603f3d011682016040523d82523d6000602084013e610b67565b606091505b5050905080610ba2576040517fa1d04b3900000000000000000000000000000000000000000000000000000000815260040160405180910390fd5b8173ffffffffffffffffffffffffffffffffffffffff167f5b690ec4a06fe979403046eaeea5b3ce38524683c3001f662c8b5a829632f7df60405160405180910390a25050505050565b828054828255906000526020600020908101928215610c65579160200282015b82811115610c645782518260006101000a81548173ffffffffffffffffffffffffffffffffffffffff021916908373ffffffffffffffffffffffffffffffffffffffff16021790555091602001919060010190610c0c565b5b509050610c729190610c76565b5090565b5b80821115610c8f576000816000905550600101610c77565b5090565b6000610ca6610ca184611238565b611213565b90508083825260208201905082856020860282011115610cc957610cc861157a565b5b60005b85811015610cf95781610cdf8882610df7565b845260208401935060208301925050600181019050610ccc565b5050509392505050565b6000610d16610d1184611264565b611213565b905082815260208101848484011115610d3257610d3161157f565b5b610d3d8482856113e1565b509392505050565b600082601f830112610d5a57610d59611575565b5b8135610d6a848260208601610c93565b91505092915050565b60008083601f840112610d8957610d88611575565b5b8235905067ffffffffffffffff811115610da657610da5611570565b5b602083019150836001820283011115610dc257610dc161157a565b5b9250929050565b600082601f830112610dde57610ddd611575565b5b8135610dee848260208601610d03565b91505092915050565b600081359050610e06816115b6565b92915050565b600081519050610e1b816115b6565b92915050565b60008060208385031215610e3857610e37611589565b5b600083013567ffffffffffffffff811115610e5657610e55611584565b5b610e6285828601610d73565b92509250509250929050565b600060208284031215610e8457610e83611589565b5b600082013567ffffffffffffffff811115610ea257610ea1611584565b5b610eae84828501610dc9565b91505092915050565b600060208284031215610ecd57610ecc611589565b5b6000610edb84828501610df7565b91505092915050565b600060208284031215610efa57610ef9611589565b5b6000610f0884828501610e0c565b91505092915050565b60008060408385031215610f2857610f27611589565b5b6000610f3685828601610df7565b925050602083013567ffffffffffffffff811115610f5757610f56611584565b5b610f6385828601610d45565b9150509250929050565b610f7681611302565b82525050565b610f85816112f0565b82525050565b610f9481611314565b82525050565b610fa381611320565b82525050565b6000610fb482611295565b610fbe81856112a0565b9350610fce8185602086016113f0565b610fd78161158e565b840191505092915050565b610feb81611399565b82525050565b610ffa816113ab565b82525050565b600061100d6000836112b1565b91506110188261159f565b600082019050919050565b61102c8161133d565b82525050565b61103b8161136b565b82525050565b61104a81611375565b82525050565b61105981611385565b82525050565b600061106a82611000565b9150819050919050565b60006020820190506110896000830184610f7c565b92915050565b60006020820190506110a46000830184610f6d565b92915050565b60006040820190506110bf6000830185610f7c565b6110cc6020830184610f7c565b9392505050565b60006040820190506110e86000830185610f8b565b81810360208301526110fa8184610fa9565b90509392505050565b60006020820190506111186000830184610f9a565b92915050565b600060a0820190506111336000830188610f9a565b6111406020830187611050565b61114d6040830186611023565b61115a6060830185611041565b6111676080830184611041565b9695505050505050565b60006020820190506111866000830184610fe2565b92915050565b60006020820190506111a16000830184610ff1565b92915050565b60006020820190506111bc6000830184611023565b92915050565b60006020820190506111d76000830184611032565b92915050565b60006020820190506111f26000830184611041565b92915050565b600060208201905061120d6000830184611050565b92915050565b600061121d61122e565b90506112298282611423565b919050565b6000604051905090565b600067ffffffffffffffff82111561125357611252611541565b5b602082029050602081019050919050565b600067ffffffffffffffff82111561127f5761127e611541565b5b6112888261158e565b9050602081019050919050565b600081519050919050565b600082825260208201905092915050565b600081905092915050565b60006112c78261136b565b91506112d28361136b565b9250828210156112e5576112e4611485565b5b828203905092915050565b60006112fb8261134b565b9050919050565b600061130d8261134b565b9050919050565b60008115159050919050565b6000819050919050565b6000819050611338826115a2565b919050565b600061ffff82169050919050565b600073ffffffffffffffffffffffffffffffffffffffff82169050919050565b6000819050919050565b600063ffffffff82169050919050565b600067ffffffffffffffff82169050919050565b60006113a4826113bd565b9050919050565b60006113b68261132a565b9050919050565b60006113c8826113cf565b9050919050565b60006113da8261134b565b9050919050565b82818337600083830152505050565b60005b8381101561140e5780820151818401526020810190506113f3565b8381111561141d576000848401525b50505050565b61142c8261158e565b810181811067ffffffffffffffff8211171561144b5761144a611541565b5b80604052505050565b600061145f8261136b565b915061146a8361136b565b92508261147a576114796114b4565b5b828206905092915050565b7f4e487b7100000000000000000000000000000000000000000000000000000000600052601160045260246000fd5b7f4e487b7100000000000000000000000000000000000000000000000000000000600052601260045260246000fd5b7f4e487b7100000000000000000000000000000000000000000000000000000000600052602160045260246000fd5b7f4e487b7100000000000000000000000000000000000000000000000000000000600052603260045260246000fd5b7f4e487b7100000000000000000000000000000000000000000000000000000000600052604160045260246000fd5b600080fd5b600080fd5b600080fd5b600080fd5b600080fd5b600080fd5b6000601f19601f8301169050919050565b50565b600281106115b3576115b26114e3565b5b50565b6115bf8161136b565b81146115ca57600080fd5b5056fea2646970667358221220629c33d13da7ec54986adef3e728056afce0d70d3df3d8cfa1f3b4f600f7a40364736f6c63430008070033",
  "devdoc": {
    "kind": "dev",
    "methods": {
      "checkUpkeep(bytes)": {
        "details": " 1 - Be true after some interval 2 - Want the lottery to be open 3 - The contract has ETH 4 - There is al least 1 player 5- Keepers has LINK"
      },
      "enterRaffle()": {
        "details": " - Check if msg.value is correct - Check state of Raffle -> Open or Calculating"
      }
    },
    "version": 1
  },
  "userdoc": {
    "events": {
      "RaffleEnter(address)": {
        "notice": "Events"
      }
    },
    "kind": "user",
    "methods": {
      "checkUpkeep(bytes)": {
        "notice": "Function to check the 4 below requirements, if fulfilled -> pick a Winner"
      },
      "enterRaffle()": {
        "notice": "Function for users to join the Raffle"
      },
      "i_vrfCoordinator()": {
        "notice": "VRF Variables"
      },
      "performUpkeep(bytes)": {
        "notice": "Functions to actually pick a random NUMBER -> Chainlink keepers to do it Automatically and decentralized"
      },
      "s_raffleState()": {
        "notice": "Variables"
      }
    },
    "version": 1
  },
  "storageLayout": {
    "storage": [
      {
        "astId": 167,
        "contract": "contracts/Raffle.sol:Raffle",
        "label": "s_raffleState",
        "offset": 0,
        "slot": "0",
        "type": "t_enum(RaffleState)163"
      },
      {
        "astId": 173,
        "contract": "contracts/Raffle.sol:Raffle",
        "label": "s_lastTimeStamp",
        "offset": 0,
        "slot": "1",
        "type": "t_uint256"
      },
      {
        "astId": 176,
        "contract": "contracts/Raffle.sol:Raffle",
        "label": "s_players",
        "offset": 0,
        "slot": "2",
        "type": "t_array(t_address_payable)dyn_storage"
      },
      {
        "astId": 178,
        "contract": "contracts/Raffle.sol:Raffle",
        "label": "s_recentWinner",
        "offset": 0,
        "slot": "3",
        "type": "t_address"
      }
    ],
    "types": {
      "t_address": {
        "encoding": "inplace",
        "label": "address",
        "numberOfBytes": "20"
      },
      "t_address_payable": {
        "encoding": "inplace",
        "label": "address payable",
        "numberOfBytes": "20"
      },
      "t_array(t_address_payable)dyn_storage": {
        "base": "t_address_payable",
        "encoding": "dynamic_array",
        "label": "address payable[]",
        "numberOfBytes": "32"
      },
      "t_enum(RaffleState)163": {
        "encoding": "inplace",
        "label": "enum Raffle.RaffleState",
        "numberOfBytes": "1"
      },
      "t_uint256": {
        "encoding": "inplace",
        "label": "uint256",
        "numberOfBytes": "32"
      }
    }
  }
}